{
  "_format": "hh3-artifact-1",
  "contractName": "DataResolver",
  "sourceName": "contracts/DataResolver.sol",
  "abi": [
    {
      "anonymous": false,
      "inputs": [
        {
          "indexed": true,
          "internalType": "bytes32",
          "name": "node",
          "type": "bytes32"
        },
        {
          "indexed": true,
          "internalType": "bytes32",
          "name": "dataHash",
          "type": "bytes32"
        }
      ],
      "name": "DataChanged",
      "type": "event"
    },
    {
      "anonymous": false,
      "inputs": [
        {
          "indexed": true,
          "internalType": "address",
          "name": "previousOwner",
          "type": "address"
        },
        {
          "indexed": true,
          "internalType": "address",
          "name": "newOwner",
          "type": "address"
        }
      ],
      "name": "OwnershipTransferred",
      "type": "event"
    },
    {
      "inputs": [
        {
          "internalType": "bytes32",
          "name": "node",
          "type": "bytes32"
        }
      ],
      "name": "data",
      "outputs": [
        {
          "internalType": "bytes",
          "name": "",
          "type": "bytes"
        }
      ],
      "stateMutability": "view",
      "type": "function"
    },
    {
      "inputs": [],
      "name": "owner",
      "outputs": [
        {
          "internalType": "address",
          "name": "",
          "type": "address"
        }
      ],
      "stateMutability": "view",
      "type": "function"
    },
    {
      "inputs": [],
      "name": "renounceOwnership",
      "outputs": [],
      "stateMutability": "nonpayable",
      "type": "function"
    },
    {
      "inputs": [
        {
          "internalType": "bytes",
          "name": "",
          "type": "bytes"
        },
        {
          "internalType": "bytes",
          "name": "data",
          "type": "bytes"
        }
      ],
      "name": "resolve",
      "outputs": [
        {
          "internalType": "bytes",
          "name": "",
          "type": "bytes"
        }
      ],
      "stateMutability": "view",
      "type": "function"
    },
    {
      "inputs": [
        {
          "internalType": "bytes32",
          "name": "node",
          "type": "bytes32"
        },
        {
          "internalType": "bytes",
          "name": "value",
          "type": "bytes"
        }
      ],
      "name": "setData",
      "outputs": [],
      "stateMutability": "nonpayable",
      "type": "function"
    },
    {
      "inputs": [
        {
          "internalType": "address",
          "name": "newOwner",
          "type": "address"
        }
      ],
      "name": "transferOwnership",
      "outputs": [],
      "stateMutability": "nonpayable",
      "type": "function"
    }
  ],
  "bytecode": "0x608060405234801561000f575f5ffd5b5061002c61002161003160201b60201c565b61003860201b60201c565b6100f9565b5f33905090565b5f5f5f9054906101000a900473ffffffffffffffffffffffffffffffffffffffff169050815f5f6101000a81548173ffffffffffffffffffffffffffffffffffffffff021916908373ffffffffffffffffffffffffffffffffffffffff1602179055508173ffffffffffffffffffffffffffffffffffffffff168173ffffffffffffffffffffffffffffffffffffffff167f8be0079c531659141344cd1fd0a4f28419497f9722a3daafe3b4186f6b6457e060405160405180910390a35050565b610d70806101065f395ff3fe608060405234801561000f575f5ffd5b5060043610610060575f3560e01c80630147fb0c14610064578063715018a6146100945780637f23690c1461009e5780638da5cb5b146100ba5780639061b923146100d8578063f2fde38b14610108575b5f5ffd5b61007e60048036038101906100799190610507565b610124565b60405161008b91906105a2565b60405180910390f35b61009c6101c5565b005b6100b860048036038101906100b39190610623565b6101d8565b005b6100c261024b565b6040516100cf91906106bf565b60405180910390f35b6100f260048036038101906100ed9190610800565b610272565b6040516100ff91906105a2565b60405180910390f35b610122600480360381019061011d91906108a0565b6102fb565b005b606060015f8381526020019081526020015f208054610142906108f8565b80601f016020809104026020016040519081016040528092919081815260200182805461016e906108f8565b80156101b95780601f10610190576101008083540402835291602001916101b9565b820191905f5260205f20905b81548152906001019060200180831161019c57829003601f168201915b50505050509050919050565b6101cd61037d565b6101d65f6103fb565b565b6101e061037d565b818160015f8681526020019081526020015f209182610200929190610adb565b508181604051610211929190610bd6565b6040518091039020837f35553580e4553c909abeb5764e842ce1f93c45f9f614bde2a2ca5f5b7b7dc0fb60405160405180910390a3505050565b5f5f5f9054906101000a900473ffffffffffffffffffffffffffffffffffffffff16905090565b60605f5f3073ffffffffffffffffffffffffffffffffffffffff168460405161029b9190610c1e565b5f60405180830381855afa9150503d805f81146102d3576040519150601f19603f3d011682016040523d82523d5f602084013e6102d8565b606091505b509150915081156102ed5780925050506102f5565b805160208201fd5b92915050565b61030361037d565b5f73ffffffffffffffffffffffffffffffffffffffff168173ffffffffffffffffffffffffffffffffffffffff1603610371576040517f08c379a000000000000000000000000000000000000000000000000000000000815260040161036890610cb4565b60405180910390fd5b61037a816103fb565b50565b6103856104bc565b73ffffffffffffffffffffffffffffffffffffffff166103a361024b565b73ffffffffffffffffffffffffffffffffffffffff16146103f9576040517f08c379a00000000000000000000000000000000000000000000000000000000081526004016103f090610d1c565b60405180910390fd5b565b5f5f5f9054906101000a900473ffffffffffffffffffffffffffffffffffffffff169050815f5f6101000a81548173ffffffffffffffffffffffffffffffffffffffff021916908373ffffffffffffffffffffffffffffffffffffffff1602179055508173ffffffffffffffffffffffffffffffffffffffff168173ffffffffffffffffffffffffffffffffffffffff167f8be0079c531659141344cd1fd0a4f28419497f9722a3daafe3b4186f6b6457e060405160405180910390a35050565b5f33905090565b5f604051905090565b5f5ffd5b5f5ffd5b5f819050919050565b6104e6816104d4565b81146104f0575f5ffd5b50565b5f81359050610501816104dd565b92915050565b5f6020828403121561051c5761051b6104cc565b5b5f610529848285016104f3565b91505092915050565b5f81519050919050565b5f82825260208201905092915050565b8281835e5f83830152505050565b5f601f19601f8301169050919050565b5f61057482610532565b61057e818561053c565b935061058e81856020860161054c565b6105978161055a565b840191505092915050565b5f6020820190508181035f8301526105ba818461056a565b905092915050565b5f5ffd5b5f5ffd5b5f5ffd5b5f5f83601f8401126105e3576105e26105c2565b5b8235905067ffffffffffffffff811115610600576105ff6105c6565b5b60208301915083600182028301111561061c5761061b6105ca565b5b9250929050565b5f5f5f6040848603121561063a576106396104cc565b5b5f610647868287016104f3565b935050602084013567ffffffffffffffff811115610668576106676104d0565b5b610674868287016105ce565b92509250509250925092565b5f73ffffffffffffffffffffffffffffffffffffffff82169050919050565b5f6106a982610680565b9050919050565b6106b98161069f565b82525050565b5f6020820190506106d25f8301846106b0565b92915050565b5f5ffd5b7f4e487b71000000000000000000000000000000000000000000000000000000005f52604160045260245ffd5b6107128261055a565b810181811067ffffffffffffffff82111715610731576107306106dc565b5b80604052505050565b5f6107436104c3565b905061074f8282610709565b919050565b5f67ffffffffffffffff82111561076e5761076d6106dc565b5b6107778261055a565b9050602081019050919050565b828183375f83830152505050565b5f6107a461079f84610754565b61073a565b9050828152602081018484840111156107c0576107bf6106d8565b5b6107cb848285610784565b509392505050565b5f82601f8301126107e7576107e66105c2565b5b81356107f7848260208601610792565b91505092915050565b5f5f60408385031215610816576108156104cc565b5b5f83013567ffffffffffffffff811115610833576108326104d0565b5b61083f858286016107d3565b925050602083013567ffffffffffffffff8111156108605761085f6104d0565b5b61086c858286016107d3565b9150509250929050565b61087f8161069f565b8114610889575f5ffd5b50565b5f8135905061089a81610876565b92915050565b5f602082840312156108b5576108b46104cc565b5b5f6108c28482850161088c565b91505092915050565b7f4e487b71000000000000000000000000000000000000000000000000000000005f52602260045260245ffd5b5f600282049050600182168061090f57607f821691505b602082108103610922576109216108cb565b5b50919050565b5f82905092915050565b5f819050815f5260205f209050919050565b5f6020601f8301049050919050565b5f82821b905092915050565b5f6008830261098e7fffffffffffffffffffffffffffffffffffffffffffffffffffffffffffffffff82610953565b6109988683610953565b95508019841693508086168417925050509392505050565b5f819050919050565b5f819050919050565b5f6109dc6109d76109d2846109b0565b6109b9565b6109b0565b9050919050565b5f819050919050565b6109f5836109c2565b610a09610a01826109e3565b84845461095f565b825550505050565b5f5f905090565b610a20610a11565b610a2b8184846109ec565b505050565b5b81811015610a4e57610a435f82610a18565b600181019050610a31565b5050565b601f821115610a9357610a6481610932565b610a6d84610944565b81016020851015610a7c578190505b610a90610a8885610944565b830182610a30565b50505b505050565b5f82821c905092915050565b5f610ab35f1984600802610a98565b1980831691505092915050565b5f610acb8383610aa4565b9150826002028217905092915050565b610ae58383610928565b67ffffffffffffffff811115610afe57610afd6106dc565b5b610b0882546108f8565b610b13828285610a52565b5f601f831160018114610b40575f8415610b2e578287013590505b610b388582610ac0565b865550610b9f565b601f198416610b4e86610932565b5f5b82811015610b7557848901358255600182019150602085019450602081019050610b50565b86831015610b925784890135610b8e601f891682610aa4565b8355505b6001600288020188555050505b50505050505050565b5f81905092915050565b5f610bbd8385610ba8565b9350610bca838584610784565b82840190509392505050565b5f610be2828486610bb2565b91508190509392505050565b5f610bf882610532565b610c028185610ba8565b9350610c1281856020860161054c565b80840191505092915050565b5f610c298284610bee565b915081905092915050565b5f82825260208201905092915050565b7f4f776e61626c653a206e6577206f776e657220697320746865207a65726f20615f8201527f6464726573730000000000000000000000000000000000000000000000000000602082015250565b5f610c9e602683610c34565b9150610ca982610c44565b604082019050919050565b5f6020820190508181035f830152610ccb81610c92565b9050919050565b7f4f776e61626c653a2063616c6c6572206973206e6f7420746865206f776e65725f82015250565b5f610d06602083610c34565b9150610d1182610cd2565b602082019050919050565b5f6020820190508181035f830152610d3381610cfa565b905091905056fea2646970667358221220124442e090850c4542422505c2b4a31770e51e68b3f9a6e4ad3b4bca76c6559e64736f6c634300081c0033",
  "linkReferences": {},
  "deployedLinkReferences": {},
  "immutableReferences": {},
  "inputSourceName": "project/contracts/DataResolver.sol",
  "buildInfoId": "solc-0_8_28-d828678656aced6ad088c97d06a28ce1a9defac0"
}