{
  "_format": "hh3-artifact-1",
  "contractName": "MultiParamResolver",
  "sourceName": "contracts/MultiParamResolver.sol",
  "abi": [
    {
      "anonymous": false,
      "inputs": [
        {
          "indexed": true,
          "internalType": "bytes32",
          "name": "node",
          "type": "bytes32"
        },
        {
          "indexed": false,
          "internalType": "bytes32",
          "name": "hash",
          "type": "bytes32"
        }
      ],
      "name": "DataChanged",
      "type": "event"
    },
    {
      "inputs": [
        {
          "internalType": "bytes32",
          "name": "node",
          "type": "bytes32"
        },
        {
          "internalType": "bytes32",
          "name": "_cacheNonce",
          "type": "bytes32"
        }
      ],
      "name": "dataWithOptions",
      "outputs": [
        {
          "internalType": "bytes",
          "name": "",
          "type": "bytes"
        }
      ],
      "stateMutability": "view",
      "type": "function"
    },
    {
      "inputs": [
        {
          "internalType": "bytes32",
          "name": "node",
          "type": "bytes32"
        },
        {
          "internalType": "bytes",
          "name": "value",
          "type": "bytes"
        }
      ],
      "name": "setData",
      "outputs": [],
      "stateMutability": "nonpayable",
      "type": "function"
    }
  ],
  "bytecode": "0x6080604052348015600e575f5ffd5b5061071c8061001c5f395ff3fe608060405234801561000f575f5ffd5b5060043610610034575f3560e01c806351120edf146100385780637f23690c14610068575b5f5ffd5b610052600480360381019061004d91906101d4565b610084565b60405161005f9190610282565b60405180910390f35b610082600480360381019061007d9190610303565b610125565b005b60605f5f8481526020019081526020015f2080546100a19061038d565b80601f01602080910402602001604051908101604052809291908181526020018280546100cd9061038d565b80156101185780601f106100ef57610100808354040283529160200191610118565b820191905f5260205f20905b8154815290600101906020018083116100fb57829003601f168201915b5050505050905092915050565b81815f5f8681526020019081526020015f20918261014492919061059d565b50827f35553580e4553c909abeb5764e842ce1f93c45f9f614bde2a2ca5f5b7b7dc0fb83836040516101779291906106a6565b604051809103902060405161018c91906106cd565b60405180910390a2505050565b5f5ffd5b5f5ffd5b5f819050919050565b6101b3816101a1565b81146101bd575f5ffd5b50565b5f813590506101ce816101aa565b92915050565b5f5f604083850312156101ea576101e9610199565b5b5f6101f7858286016101c0565b9250506020610208858286016101c0565b9150509250929050565b5f81519050919050565b5f82825260208201905092915050565b8281835e5f83830152505050565b5f601f19601f8301169050919050565b5f61025482610212565b61025e818561021c565b935061026e81856020860161022c565b6102778161023a565b840191505092915050565b5f6020820190508181035f83015261029a818461024a565b905092915050565b5f5ffd5b5f5ffd5b5f5ffd5b5f5f83601f8401126102c3576102c26102a2565b5b8235905067ffffffffffffffff8111156102e0576102df6102a6565b5b6020830191508360018202830111156102fc576102fb6102aa565b5b9250929050565b5f5f5f6040848603121561031a57610319610199565b5b5f610327868287016101c0565b935050602084013567ffffffffffffffff8111156103485761034761019d565b5b610354868287016102ae565b92509250509250925092565b7f4e487b71000000000000000000000000000000000000000000000000000000005f52602260045260245ffd5b5f60028204905060018216806103a457607f821691505b6020821081036103b7576103b6610360565b5b50919050565b5f82905092915050565b7f4e487b71000000000000000000000000000000000000000000000000000000005f52604160045260245ffd5b5f819050815f5260205f209050919050565b5f6020601f8301049050919050565b5f82821b905092915050565b5f600883026104507fffffffffffffffffffffffffffffffffffffffffffffffffffffffffffffffff82610415565b61045a8683610415565b95508019841693508086168417925050509392505050565b5f819050919050565b5f819050919050565b5f61049e61049961049484610472565b61047b565b610472565b9050919050565b5f819050919050565b6104b783610484565b6104cb6104c3826104a5565b848454610421565b825550505050565b5f5f905090565b6104e26104d3565b6104ed8184846104ae565b505050565b5b81811015610510576105055f826104da565b6001810190506104f3565b5050565b601f82111561055557610526816103f4565b61052f84610406565b8101602085101561053e578190505b61055261054a85610406565b8301826104f2565b50505b505050565b5f82821c905092915050565b5f6105755f198460080261055a565b1980831691505092915050565b5f61058d8383610566565b9150826002028217905092915050565b6105a783836103bd565b67ffffffffffffffff8111156105c0576105bf6103c7565b5b6105ca825461038d565b6105d5828285610514565b5f601f831160018114610602575f84156105f0578287013590505b6105fa8582610582565b865550610661565b601f198416610610866103f4565b5f5b8281101561063757848901358255600182019150602085019450602081019050610612565b868310156106545784890135610650601f891682610566565b8355505b6001600288020188555050505b50505050505050565b5f81905092915050565b828183375f83830152505050565b5f61068d838561066a565b935061069a838584610674565b82840190509392505050565b5f6106b2828486610682565b91508190509392505050565b6106c7816101a1565b82525050565b5f6020820190506106e05f8301846106be565b9291505056fea2646970667358221220eebe90ed24f0aa75589f6f89b290d5ae620e4b8967cc125a1ef95a553b25202b64736f6c634300081c0033",
  "linkReferences": {},
  "deployedLinkReferences": {},
  "immutableReferences": {},
  "inputSourceName": "project/contracts/MultiParamResolver.sol",
  "buildInfoId": "solc-0_8_28-10ca43cab300eadcfd5452e204995cf5f394b043"
}