{
  "_format": "hh3-artifact-1",
  "contractName": "ZeroParameterHookTarget",
  "sourceName": "contracts/ZeroParameterHookTarget.sol",
  "abi": [
    {
      "anonymous": false,
      "inputs": [
        {
          "indexed": false,
          "internalType": "bytes32",
          "name": "hash",
          "type": "bytes32"
        }
      ],
      "name": "GlobalDataChanged",
      "type": "event"
    },
    {
      "anonymous": false,
      "inputs": [
        {
          "indexed": true,
          "internalType": "address",
          "name": "previousOwner",
          "type": "address"
        },
        {
          "indexed": true,
          "internalType": "address",
          "name": "newOwner",
          "type": "address"
        }
      ],
      "name": "OwnershipTransferred",
      "type": "event"
    },
    {
      "inputs": [],
      "name": "getData",
      "outputs": [
        {
          "internalType": "bytes",
          "name": "",
          "type": "bytes"
        }
      ],
      "stateMutability": "view",
      "type": "function"
    },
    {
      "inputs": [],
      "name": "owner",
      "outputs": [
        {
          "internalType": "address",
          "name": "",
          "type": "address"
        }
      ],
      "stateMutability": "view",
      "type": "function"
    },
    {
      "inputs": [],
      "name": "renounceOwnership",
      "outputs": [],
      "stateMutability": "nonpayable",
      "type": "function"
    },
    {
      "inputs": [
        {
          "internalType": "bytes",
          "name": "value",
          "type": "bytes"
        }
      ],
      "name": "setData",
      "outputs": [],
      "stateMutability": "nonpayable",
      "type": "function"
    },
    {
      "inputs": [
        {
          "internalType": "address",
          "name": "newOwner",
          "type": "address"
        }
      ],
      "name": "transferOwnership",
      "outputs": [],
      "stateMutability": "nonpayable",
      "type": "function"
    }
  ],
  "bytecode": "0x608060405234801561000f575f5ffd5b5061002c61002161003160201b60201c565b61003860201b60201c565b6100f9565b5f33905090565b5f5f5f9054906101000a900473ffffffffffffffffffffffffffffffffffffffff169050815f5f6101000a81548173ffffffffffffffffffffffffffffffffffffffff021916908373ffffffffffffffffffffffffffffffffffffffff1602179055508173ffffffffffffffffffffffffffffffffffffffff168173ffffffffffffffffffffffffffffffffffffffff167f8be0079c531659141344cd1fd0a4f28419497f9722a3daafe3b4186f6b6457e060405160405180910390a35050565b610a91806101065f395ff3fe608060405234801561000f575f5ffd5b5060043610610055575f3560e01c80633bc5de3014610059578063715018a6146100775780638da5cb5b14610081578063ab62f0e11461009f578063f2fde38b146100bb575b5f5ffd5b6100616100d7565b60405161006e9190610445565b60405180910390f35b61007f610167565b005b61008961017a565b60405161009691906104a4565b60405180910390f35b6100b960048036038101906100b49190610526565b6101a1565b005b6100d560048036038101906100d0919061059b565b61020d565b005b6060600180546100e6906105f3565b80601f0160208091040260200160405190810160405280929190818152602001828054610112906105f3565b801561015d5780601f106101345761010080835404028352916020019161015d565b820191905f5260205f20905b81548152906001019060200180831161014057829003601f168201915b5050505050905090565b61016f61028f565b6101785f61030d565b565b5f5f5f9054906101000a900473ffffffffffffffffffffffffffffffffffffffff16905090565b6101a961028f565b8181600191826101ba929190610803565b507f02414aee7b605f719406659c38c3506d62f52acbe2e742b4ba2eac10bd19417582826040516101ec92919061090c565b6040518091039020604051610201919061093c565b60405180910390a15050565b61021561028f565b5f73ffffffffffffffffffffffffffffffffffffffff168173ffffffffffffffffffffffffffffffffffffffff1603610283576040517f08c379a000000000000000000000000000000000000000000000000000000000815260040161027a906109d5565b60405180910390fd5b61028c8161030d565b50565b6102976103ce565b73ffffffffffffffffffffffffffffffffffffffff166102b561017a565b73ffffffffffffffffffffffffffffffffffffffff161461030b576040517f08c379a000000000000000000000000000000000000000000000000000000000815260040161030290610a3d565b60405180910390fd5b565b5f5f5f9054906101000a900473ffffffffffffffffffffffffffffffffffffffff169050815f5f6101000a81548173ffffffffffffffffffffffffffffffffffffffff021916908373ffffffffffffffffffffffffffffffffffffffff1602179055508173ffffffffffffffffffffffffffffffffffffffff168173ffffffffffffffffffffffffffffffffffffffff167f8be0079c531659141344cd1fd0a4f28419497f9722a3daafe3b4186f6b6457e060405160405180910390a35050565b5f33905090565b5f81519050919050565b5f82825260208201905092915050565b8281835e5f83830152505050565b5f601f19601f8301169050919050565b5f610417826103d5565b61042181856103df565b93506104318185602086016103ef565b61043a816103fd565b840191505092915050565b5f6020820190508181035f83015261045d818461040d565b905092915050565b5f73ffffffffffffffffffffffffffffffffffffffff82169050919050565b5f61048e82610465565b9050919050565b61049e81610484565b82525050565b5f6020820190506104b75f830184610495565b92915050565b5f5ffd5b5f5ffd5b5f5ffd5b5f5ffd5b5f5ffd5b5f5f83601f8401126104e6576104e56104c5565b5b8235905067ffffffffffffffff811115610503576105026104c9565b5b60208301915083600182028301111561051f5761051e6104cd565b5b9250929050565b5f5f6020838503121561053c5761053b6104bd565b5b5f83013567ffffffffffffffff811115610559576105586104c1565b5b610565858286016104d1565b92509250509250929050565b61057a81610484565b8114610584575f5ffd5b50565b5f8135905061059581610571565b92915050565b5f602082840312156105b0576105af6104bd565b5b5f6105bd84828501610587565b91505092915050565b7f4e487b71000000000000000000000000000000000000000000000000000000005f52602260045260245ffd5b5f600282049050600182168061060a57607f821691505b60208210810361061d5761061c6105c6565b5b50919050565b5f82905092915050565b7f4e487b71000000000000000000000000000000000000000000000000000000005f52604160045260245ffd5b5f819050815f5260205f209050919050565b5f6020601f8301049050919050565b5f82821b905092915050565b5f600883026106b67fffffffffffffffffffffffffffffffffffffffffffffffffffffffffffffffff8261067b565b6106c0868361067b565b95508019841693508086168417925050509392505050565b5f819050919050565b5f819050919050565b5f6107046106ff6106fa846106d8565b6106e1565b6106d8565b9050919050565b5f819050919050565b61071d836106ea565b6107316107298261070b565b848454610687565b825550505050565b5f5f905090565b610748610739565b610753818484610714565b505050565b5b818110156107765761076b5f82610740565b600181019050610759565b5050565b601f8211156107bb5761078c8161065a565b6107958461066c565b810160208510156107a4578190505b6107b86107b08561066c565b830182610758565b50505b505050565b5f82821c905092915050565b5f6107db5f19846008026107c0565b1980831691505092915050565b5f6107f383836107cc565b9150826002028217905092915050565b61080d8383610623565b67ffffffffffffffff8111156108265761082561062d565b5b61083082546105f3565b61083b82828561077a565b5f601f831160018114610868575f8415610856578287013590505b61086085826107e8565b8655506108c7565b601f1984166108768661065a565b5f5b8281101561089d57848901358255600182019150602085019450602081019050610878565b868310156108ba57848901356108b6601f8916826107cc565b8355505b6001600288020188555050505b50505050505050565b5f81905092915050565b828183375f83830152505050565b5f6108f383856108d0565b93506109008385846108da565b82840190509392505050565b5f6109188284866108e8565b91508190509392505050565b5f819050919050565b61093681610924565b82525050565b5f60208201905061094f5f83018461092d565b92915050565b5f82825260208201905092915050565b7f4f776e61626c653a206e6577206f776e657220697320746865207a65726f20615f8201527f6464726573730000000000000000000000000000000000000000000000000000602082015250565b5f6109bf602683610955565b91506109ca82610965565b604082019050919050565b5f6020820190508181035f8301526109ec816109b3565b9050919050565b7f4f776e61626c653a2063616c6c6572206973206e6f7420746865206f776e65725f82015250565b5f610a27602083610955565b9150610a32826109f3565b602082019050919050565b5f6020820190508181035f830152610a5481610a1b565b905091905056fea26469706673582212202a63f8059ab2b8b5fa3b07fe68c9153cd03dc5221a36b27a3c3a0b200b7a6c0164736f6c634300081c0033",
  "linkReferences": {},
  "deployedLinkReferences": {},
  "immutableReferences": {},
  "inputSourceName": "project/contracts/ZeroParameterHookTarget.sol",
  "buildInfoId": "solc-0_8_28-d828678656aced6ad088c97d06a28ce1a9defac0"
}